{
  "_format": "hh-sol-artifact-1",
  "contractName": "FlowInsightERC721NFT",
  "sourceName": "contracts/nft/FlowInsightERC721NFT.sol",
  "abi": [
    {
      "constant": true,
      "inputs": [],
      "name": "name",
      "outputs": [
        {
          "name": "_name",
          "type": "string"
        }
      ],
      "payable": false,
      "stateMutability": "view",
      "type": "function"
    },
    {
      "constant": true,
      "inputs": [
        {
          "name": "_tokenId",
          "type": "uint256"
        }
      ],
      "name": "getApproved",
      "outputs": [
        {
          "name": "",
          "type": "address"
        }
      ],
      "payable": false,
      "stateMutability": "view",
      "type": "function"
    },
    {
      "constant": false,
      "inputs": [
        {
          "name": "_approved",
          "type": "address"
        },
        {
          "name": "_tokenId",
          "type": "uint256"
        }
      ],
      "name": "approve",
      "outputs": [],
      "payable": true,
      "stateMutability": "payable",
      "type": "function"
    },
    {
      "constant": true,
      "inputs": [],
      "name": "whitelistSetterAddress",
      "outputs": [
        {
          "name": "",
          "type": "address"
        }
      ],
      "payable": false,
      "stateMutability": "view",
      "type": "function"
    },
    {
      "constant": true,
      "inputs": [],
      "name": "totalSupply",
      "outputs": [
        {
          "name": "",
          "type": "uint256"
        }
      ],
      "payable": false,
      "stateMutability": "view",
      "type": "function"
    },
    {
      "constant": true,
      "inputs": [],
      "name": "marketplaceManager",
      "outputs": [
        {
          "name": "",
          "type": "address"
        }
      ],
      "payable": false,
      "stateMutability": "view",
      "type": "function"
    },
    {
      "constant": false,
      "inputs": [
        {
          "name": "_from",
          "type": "address"
        },
        {
          "name": "_to",
          "type": "address"
        },
        {
          "name": "_tokenId",
          "type": "uint256"
        }
      ],
      "name": "transferFrom",
      "outputs": [],
      "payable": true,
      "stateMutability": "payable",
      "type": "function"
    },
    {
      "constant": true,
      "inputs": [
        {
          "name": "_owner",
          "type": "address"
        },
        {
          "name": "_index",
          "type": "uint256"
        }
      ],
      "name": "tokenOfOwnerByIndex",
      "outputs": [
        {
          "name": "_tokenId",
          "type": "uint256"
        }
      ],
      "payable": false,
      "stateMutability": "view",
      "type": "function"
    },
    {
      "constant": false,
      "inputs": [
        {
          "name": "_manager",
          "type": "address"
        }
      ],
      "name": "setMarketplaceManager",
      "outputs": [],
      "payable": false,
      "stateMutability": "nonpayable",
      "type": "function"
    },
    {
      "constant": false,
      "inputs": [
        {
          "name": "account",
          "type": "address"
        }
      ],
      "name": "removeMinter",
      "outputs": [],
      "payable": false,
      "stateMutability": "nonpayable",
      "type": "function"
    },
    {
      "constant": false,
      "inputs": [
        {
          "name": "_tokenId",
          "type": "uint256"
        },
        {
          "name": "_key",
          "type": "string"
        }
      ],
      "name": "updateKey",
      "outputs": [
        {
          "name": "flag",
          "type": "uint256"
        }
      ],
      "payable": false,
      "stateMutability": "nonpayable",
      "type": "function"
    },
    {
      "constant": false,
      "inputs": [
        {
          "name": "_from",
          "type": "address"
        },
        {
          "name": "_to",
          "type": "address"
        },
        {
          "name": "_tokenId",
          "type": "uint256"
        }
      ],
      "name": "safeTransferFrom",
      "outputs": [],
      "payable": true,
      "stateMutability": "payable",
      "type": "function"
    },
    {
      "constant": true,
      "inputs": [
        {
          "name": "_index",
          "type": "uint256"
        }
      ],
      "name": "tokenByIndex",
      "outputs": [
        {
          "name": "",
          "type": "uint256"
        }
      ],
      "payable": false,
      "stateMutability": "view",
      "type": "function"
    },
    {
      "constant": false,
      "inputs": [
        {
          "name": "_to",
          "type": "address"
        },
        {
          "name": "_name",
          "type": "string"
        },
        {
          "name": "_picURL",
          "type": "string"
        },
        {
          "name": "_desc",
          "type": "string"
        },
        {
          "name": "_property",
          "type": "string[]"
        },
        {
          "name": "_key",
          "type": "string"
        },
        {
          "name": "_privURL",
          "type": "string"
        },
        {
          "name": "_subscriber",
          "type": "address[]"
        },
        {
          "name": "_subscriberKey",
          "type": "string[]"
        }
      ],
      "name": "createNFT",
      "outputs": [
        {
          "name": "_FlowInsightId",
          "type": "uint256"
        }
      ],
      "payable": false,
      "stateMutability": "nonpayable",
      "type": "function"
    },
    {
      "constant": false,
      "inputs": [
        {
          "name": "_newSetter",
          "type": "address"
        }
      ],
      "name": "setWhitelistSetter",
      "outputs": [],
      "payable": false,
      "stateMutability": "nonpayable",
      "type": "function"
    },
    {
      "constant": true,
      "inputs": [
        {
          "name": "_tokenId",
          "type": "uint256"
        }
      ],
      "name": "ownerOf",
      "outputs": [
        {
          "name": "",
          "type": "address"
        }
      ],
      "payable": false,
      "stateMutability": "view",
      "type": "function"
    },
    {
      "constant": true,
      "inputs": [
        {
          "name": "_tokenId",
          "type": "uint256"
        }
      ],
      "name": "getNFTMetadata",
      "outputs": [
        {
          "components": [
            {
              "name": "name",
              "type": "string"
            },
            {
              "name": "picURL",
              "type": "string"
            },
            {
              "name": "desc",
              "type": "string"
            },
            {
              "name": "property",
              "type": "string[]"
            },
            {
              "name": "key",
              "type": "string"
            },
            {
              "name": "privURL",
              "type": "string"
            },
            {
              "name": "subscriber",
              "type": "address[]"
            },
            {
              "name": "subscriberKey",
              "type": "string[]"
            }
          ],
          "name": "",
          "type": "tuple"
        }
      ],
      "payable": false,
      "stateMutability": "view",
      "type": "function"
    },
    {
      "constant": true,
      "inputs": [
        {
          "name": "_owner",
          "type": "address"
        }
      ],
      "name": "balanceOf",
      "outputs": [
        {
          "name": "",
          "type": "uint256"
        }
      ],
      "payable": false,
      "stateMutability": "view",
      "type": "function"
    },
    {
      "constant": false,
      "inputs": [],
      "name": "renounceOwnership",
      "outputs": [],
      "payable": false,
      "stateMutability": "nonpayable",
      "type": "function"
    },
    {
      "constant": false,
      "inputs": [
        {
          "name": "_marketplace",
          "type": "address"
        },
        {
          "name": "_whitelisted",
          "type": "bool"
        }
      ],
      "name": "setMarketplace",
      "outputs": [],
      "payable": false,
      "stateMutability": "nonpayable",
      "type": "function"
    },
    {
      "constant": true,
      "inputs": [
        {
          "name": "_address",
          "type": "address"
        }
      ],
      "name": "_isContract",
      "outputs": [
        {
          "name": "",
          "type": "bool"
        }
      ],
      "payable": false,
      "stateMutability": "view",
      "type": "function"
    },
    {
      "constant": false,
      "inputs": [
        {
          "name": "_tokenId",
          "type": "uint256"
        },
        {
          "name": "_key",
          "type": "string"
        }
      ],
      "name": "subscribe",
      "outputs": [
        {
          "name": "_subscriberId",
          "type": "uint256"
        }
      ],
      "payable": false,
      "stateMutability": "nonpayable",
      "type": "function"
    },
    {
      "constant": true,
      "inputs": [],
      "name": "owner",
      "outputs": [
        {
          "name": "",
          "type": "address"
        }
      ],
      "payable": false,
      "stateMutability": "view",
      "type": "function"
    },
    {
      "constant": true,
      "inputs": [],
      "name": "symbol",
      "outputs": [
        {
          "name": "_symbol",
          "type": "string"
        }
      ],
      "payable": false,
      "stateMutability": "view",
      "type": "function"
    },
    {
      "constant": false,
      "inputs": [
        {
          "name": "account",
          "type": "address"
        }
      ],
      "name": "addMinter",
      "outputs": [],
      "payable": false,
      "stateMutability": "nonpayable",
      "type": "function"
    },
    {
      "constant": false,
      "inputs": [
        {
          "name": "_operator",
          "type": "address"
        },
        {
          "name": "_approved",
          "type": "bool"
        }
      ],
      "name": "setApprovalForAll",
      "outputs": [],
      "payable": false,
      "stateMutability": "nonpayable",
      "type": "function"
    },
    {
      "constant": true,
      "inputs": [
        {
          "name": "",
          "type": "address"
        }
      ],
      "name": "whitelistedMarketplace",
      "outputs": [
        {
          "name": "",
          "type": "bool"
        }
      ],
      "payable": false,
      "stateMutability": "view",
      "type": "function"
    },
    {
      "constant": true,
      "inputs": [
        {
          "name": "account",
          "type": "address"
        }
      ],
      "name": "isMinter",
      "outputs": [
        {
          "name": "",
          "type": "bool"
        }
      ],
      "payable": false,
      "stateMutability": "view",
      "type": "function"
    },
    {
      "constant": true,
      "inputs": [
        {
          "name": "_owner",
          "type": "address"
        }
      ],
      "name": "ownedTokens",
      "outputs": [
        {
          "name": "",
          "type": "uint256[]"
        }
      ],
      "payable": false,
      "stateMutability": "view",
      "type": "function"
    },
    {
      "constant": false,
      "inputs": [
        {
          "name": "_from",
          "type": "address"
        },
        {
          "name": "_to",
          "type": "address"
        },
        {
          "name": "_tokenId",
          "type": "uint256"
        },
        {
          "name": "_data",
          "type": "bytes"
        }
      ],
      "name": "safeTransferFrom",
      "outputs": [],
      "payable": true,
      "stateMutability": "payable",
      "type": "function"
    },
    {
      "constant": true,
      "inputs": [],
      "name": "getTotalSupply",
      "outputs": [
        {
          "name": "",
          "type": "uint256"
        }
      ],
      "payable": false,
      "stateMutability": "view",
      "type": "function"
    },
    {
      "constant": true,
      "inputs": [
        {
          "name": "_tokenId",
          "type": "uint256"
        }
      ],
      "name": "tokenURI",
      "outputs": [
        {
          "name": "",
          "type": "string"
        }
      ],
      "payable": false,
      "stateMutability": "view",
      "type": "function"
    },
    {
      "constant": true,
      "inputs": [
        {
          "name": "_owner",
          "type": "address"
        },
        {
          "name": "_operator",
          "type": "address"
        }
      ],
      "name": "isApprovedForAll",
      "outputs": [
        {
          "name": "",
          "type": "bool"
        }
      ],
      "payable": false,
      "stateMutability": "view",
      "type": "function"
    },
    {
      "constant": false,
      "inputs": [
        {
          "name": "newOwner",
          "type": "address"
        }
      ],
      "name": "transferOwnership",
      "outputs": [],
      "payable": false,
      "stateMutability": "nonpayable",
      "type": "function"
    },
    {
      "inputs": [
        {
          "name": "_nftName",
          "type": "string"
        },
        {
          "name": "_nftSymbol",
          "type": "string"
        }
      ],
      "payable": false,
      "stateMutability": "nonpayable",
      "type": "constructor"
    },
    {
      "anonymous": false,
      "inputs": [
        {
          "indexed": true,
          "name": "account",
          "type": "address"
        }
      ],
      "name": "MinterAdded",
      "type": "event"
    },
    {
      "anonymous": false,
      "inputs": [
        {
          "indexed": true,
          "name": "account",
          "type": "address"
        }
      ],
      "name": "MinterRemoved",
      "type": "event"
    },
    {
      "anonymous": false,
      "inputs": [
        {
          "indexed": true,
          "name": "nft_id",
          "type": "uint256"
        },
        {
          "indexed": true,
          "name": "owner",
          "type": "address"
        }
      ],
      "name": "NFTCreated",
      "type": "event"
    },
    {
      "anonymous": false,
      "inputs": [
        {
          "indexed": false,
          "name": "key",
          "type": "string"
        }
      ],
      "name": "UpdateKey",
      "type": "event"
    },
    {
      "anonymous": false,
      "inputs": [
        {
          "indexed": true,
          "name": "account",
          "type": "address"
        },
        {
          "indexed": true,
          "name": "sub_id",
          "type": "uint256"
        },
        {
          "indexed": false,
          "name": "nft_id",
          "type": "uint256"
        }
      ],
      "name": "NFTSubscription",
      "type": "event"
    },
    {
      "anonymous": false,
      "inputs": [
        {
          "indexed": true,
          "name": "previousOwner",
          "type": "address"
        },
        {
          "indexed": true,
          "name": "newOwner",
          "type": "address"
        }
      ],
      "name": "OwnershipTransferred",
      "type": "event"
    },
    {
      "anonymous": false,
      "inputs": [
        {
          "indexed": true,
          "name": "_from",
          "type": "address"
        },
        {
          "indexed": true,
          "name": "_to",
          "type": "address"
        },
        {
          "indexed": false,
          "name": "_tokenId",
          "type": "uint256"
        }
      ],
      "name": "Transfer",
      "type": "event"
    },
    {
      "anonymous": false,
      "inputs": [
        {
          "indexed": true,
          "name": "_owner",
          "type": "address"
        },
        {
          "indexed": true,
          "name": "_approved",
          "type": "address"
        },
        {
          "indexed": false,
          "name": "_tokenId",
          "type": "uint256"
        }
      ],
      "name": "Approval",
      "type": "event"
    },
    {
      "anonymous": false,
      "inputs": [
        {
          "indexed": true,
          "name": "_owner",
          "type": "address"
        },
        {
          "indexed": true,
          "name": "_operator",
          "type": "address"
        },
        {
          "indexed": false,
          "name": "_approved",
          "type": "bool"
        }
      ],
      "name": "ApprovalForAll",
      "type": "event"
    }
  ],
  "bytecode": "0x60806040523480156200001157600080fd5b506040516200516d3803806200516d8339810180604052620000379190810190620002be565b336000806101000a81548173ffffffffffffffffffffffffffffffffffffffff021916908373ffffffffffffffffffffffffffffffffffffffff160217905550620000a962000094620000e3640100000000026401000000009004565b620000eb640100000000026401000000009004565b81600c9080519060200190620000c1929190620001b1565b5080600d9080519060200190620000da929190620001b1565b505050620003c2565b600033905090565b6000600360009054906101000a900473ffffffffffffffffffffffffffffffffffffffff16905081600360006101000a81548173ffffffffffffffffffffffffffffffffffffffff021916908373ffffffffffffffffffffffffffffffffffffffff1602179055508173ffffffffffffffffffffffffffffffffffffffff168173ffffffffffffffffffffffffffffffffffffffff167f8be0079c531659141344cd1fd0a4f28419497f9722a3daafe3b4186f6b6457e060405160405180910390a35050565b828054600181600116156101000203166002900490600052602060002090601f016020900481019282601f10620001f457805160ff191683800117855562000225565b8280016001018555821562000225579182015b828111156200022457825182559160200191906001019062000207565b5b50905062000234919062000238565b5090565b6200025d91905b80821115620002595760008160009055506001016200023f565b5090565b90565b600082601f83011215156200027457600080fd5b81516200028b62000285826200035f565b62000331565b91508082526020830160208301858383011115620002a857600080fd5b620002b58382846200038c565b50505092915050565b60008060408385031215620002d257600080fd5b600083015167ffffffffffffffff811115620002ed57600080fd5b620002fb8582860162000260565b925050602083015167ffffffffffffffff8111156200031957600080fd5b620003278582860162000260565b9150509250929050565b6000604051905081810181811067ffffffffffffffff821117156200035557600080fd5b8060405250919050565b600067ffffffffffffffff8211156200037757600080fd5b601f19601f8301169050602081019050919050565b60005b83811015620003ac5780820151818401526020810190506200038f565b83811115620003bc576000848401525b50505050565b614d9b80620003d26000396000f3fe6080604052600436106101ac576000357c0100000000000000000000000000000000000000000000000000000000900463ffffffff16806306fdde03146101b1578063081812fc146101dc578063095ea7b3146102195780631412409a1461023557806318160ddd146102605780631889500c1461028b57806323b872dd146102b65780632f745c59146102d25780632ffb054e1461030f5780633092afd51461033857806330d1ab4e1461036157806342842e0e1461039e5780634f6ccce7146103ba57806350687957146103f7578063547a5eee146104345780636352211e1461045d5780636be9a6f11461049a57806370a08231146104d7578063715018a6146105145780637419e77a1461052b5780637d48441f1461055457806386d4fbd3146105915780638da5cb5b146105ce57806395d89b41146105f9578063983b2d5614610624578063a22cb4651461064d578063a306dfbe14610676578063aa271e1a146106b3578063b12ab40f146106f0578063b88d4fde1461072d578063c4e41b2214610749578063c87b56dd14610774578063e985e9c5146107b1578063f2fde38b146107ee575b600080fd5b3480156101bd57600080fd5b506101c6610817565b6040516101d391906147f4565b60405180910390f35b3480156101e857600080fd5b5061020360048036036101fe9190810190613f3f565b6108b9565b6040516102109190614735565b60405180910390f35b610233600480360361022e9190810190613eda565b61099d565b005b34801561024157600080fd5b5061024a610cab565b6040516102579190614735565b60405180910390f35b34801561026c57600080fd5b50610275610cd0565b6040516102829190614a98565b60405180910390f35b34801561029757600080fd5b506102a0610cda565b6040516102ad91906147d9565b60405180910390f35b6102d060048036036102cb9190810190613c49565b610d00565b005b3480156102de57600080fd5b506102f960048036036102f49190810190613eda565b610d23565b6040516103069190614a98565b60405180910390f35b34801561031b57600080fd5b5061033660048036036103319190810190613be4565b610e7b565b005b34801561034457600080fd5b5061035f600480360361035a9190810190613be4565b610f50565b005b34801561036d57600080fd5b5061038860048036036103839190810190613f68565b610fda565b6040516103959190614a98565b60405180910390f35b6103b860048036036103b39190810190613c49565b61101b565b005b3480156103c657600080fd5b506103e160048036036103dc9190810190613f3f565b61103e565b6040516103ee9190614a98565b60405180910390f35b34801561040357600080fd5b5061041e60048036036104199190810190613d54565b6110a1565b60405161042b9190614a98565b60405180910390f35b34801561044057600080fd5b5061045b60048036036104569190810190613be4565b61127b565b005b34801561046957600080fd5b50610484600480360361047f9190810190613f3f565b61134f565b6040516104919190614735565b60405180910390f35b3480156104a657600080fd5b506104c160048036036104bc9190810190613f3f565b611433565b6040516104ce9190614a76565b60405180910390f35b3480156104e357600080fd5b506104fe60048036036104f99190810190613be4565b6119f6565b60405161050b9190614a98565b60405180910390f35b34801561052057600080fd5b50610529611ab3565b005b34801561053757600080fd5b50610552600480360361054d9190810190613d18565b611b3d565b005b34801561056057600080fd5b5061057b60048036036105769190810190613be4565b611cbe565b60405161058891906147be565b60405180910390f35b34801561059d57600080fd5b506105b860048036036105b39190810190613f68565b611cd1565b6040516105c59190614a98565b60405180910390f35b3480156105da57600080fd5b506105e3611e45565b6040516105f09190614735565b60405180910390f35b34801561060557600080fd5b5061060e611e6f565b60405161061b91906147f4565b60405180910390f35b34801561063057600080fd5b5061064b60048036036106469190810190613be4565b611f11565b005b34801561065957600080fd5b50610674600480360361066f9190810190613d18565b611f9b565b005b34801561068257600080fd5b5061069d60048036036106989190810190613be4565b61216a565b6040516106aa91906147be565b60405180910390f35b3480156106bf57600080fd5b506106da60048036036106d59190810190613be4565b61218a565b6040516106e791906147be565b60405180910390f35b3480156106fc57600080fd5b5061071760048036036107129190810190613be4565b612257565b604051610724919061479c565b60405180910390f35b61074760048036036107429190810190613c98565b612360565b005b34801561075557600080fd5b5061075e6123b9565b60405161076b9190614a98565b60405180910390f35b34801561078057600080fd5b5061079b60048036036107969190810190613f3f565b6123c3565b6040516107a891906147f4565b60405180910390f35b3480156107bd57600080fd5b506107d860048036036107d39190810190613c0d565b6123d5565b6040516107e591906147be565b60405180910390f35b3480156107fa57600080fd5b5061081560048036036108109190810190613be4565b612469565b005b6060600c8054600181600116156101000203166002900480601f0160208091040260200160405190810160405280929190818152602001828054600181600116156101000203166002900480156108af5780601f10610884576101008083540402835291602001916108af565b820191906000526020600020905b81548152906001019060200180831161089257829003601f168201915b5050505050905090565b600081600073ffffffffffffffffffffffffffffffffffffffff166007600083815260200190815260200160002060009054906101000a900473ffffffffffffffffffffffffffffffffffffffff1673ffffffffffffffffffffffffffffffffffffffff1614151515610961576040517f08c379a0000000000000000000000000000000000000000000000000000000008152600401610958906148f6565b60405180910390fd5b6009600084815260200190815260200160002060009054906101000a900473ffffffffffffffffffffffffffffffffffffffff16915050919050565b80600073ffffffffffffffffffffffffffffffffffffffff166007600083815260200190815260200160002060009054906101000a900473ffffffffffffffffffffffffffffffffffffffff1673ffffffffffffffffffffffffffffffffffffffff1614151515610a43576040517f08c379a0000000000000000000000000000000000000000000000000000000008152600401610a3a906148f6565b60405180910390fd5b81610a4e3382612565565b80610a5f5750610a5e33826125d1565b5b1515610aa0576040517f08c379a0000000000000000000000000000000000000000000000000000000008152600401610a97906149f6565b60405180910390fd5b60006007600085815260200190815260200160002060009054906101000a900473ffffffffffffffffffffffffffffffffffffffff1690508473ffffffffffffffffffffffffffffffffffffffff168173ffffffffffffffffffffffffffffffffffffffff1614151515610b49576040517f08c379a0000000000000000000000000000000000000000000000000000000008152600401610b4090614a36565b60405180910390fd5b8473ffffffffffffffffffffffffffffffffffffffff166009600086815260200190815260200160002060009054906101000a900473ffffffffffffffffffffffffffffffffffffffff1673ffffffffffffffffffffffffffffffffffffffff1614151515610bed576040517f08c379a0000000000000000000000000000000000000000000000000000000008152600401610be490614896565b60405180910390fd5b846009600086815260200190815260200160002060006101000a81548173ffffffffffffffffffffffffffffffffffffffff021916908373ffffffffffffffffffffffffffffffffffffffff1602179055508473ffffffffffffffffffffffffffffffffffffffff168173ffffffffffffffffffffffffffffffffffffffff167f8c5be1e5ebec7d5bd14f71427d1e84f3dd0314c0f7b2291e5b200ac8c7c3b92586604051610c9c9190614a98565b60405180910390a35050505050565b6000809054906101000a900473ffffffffffffffffffffffffffffffffffffffff1681565b6000600454905090565b600160009054906101000a900473ffffffffffffffffffffffffffffffffffffffff1681565b610d1e838383602060405190810160405280600081525060006126ec565b505050565b60008073ffffffffffffffffffffffffffffffffffffffff168373ffffffffffffffffffffffffffffffffffffffff1614151515610d96576040517f08c379a0000000000000000000000000000000000000000000000000000000008152600401610d8d90614836565b60405180910390fd5b600a60008473ffffffffffffffffffffffffffffffffffffffff1673ffffffffffffffffffffffffffffffffffffffff1681526020019081526020016000208054905082101515610e1c576040517f08c379a0000000000000000000000000000000000000000000000000000000008152600401610e1390614856565b60405180910390fd5b600a60008473ffffffffffffffffffffffffffffffffffffffff1673ffffffffffffffffffffffffffffffffffffffff16815260200190815260200160002082815481101515610e6857fe5b9060005260206000200154905092915050565b6000809054906101000a900473ffffffffffffffffffffffffffffffffffffffff1673ffffffffffffffffffffffffffffffffffffffff163373ffffffffffffffffffffffffffffffffffffffff16141515610f0c576040517f08c379a0000000000000000000000000000000000000000000000000000000008152600401610f0390614976565b60405180910390fd5b80600160006101000a81548173ffffffffffffffffffffffffffffffffffffffff021916908373ffffffffffffffffffffffffffffffffffffffff16021790555050565b610f58612aa3565b73ffffffffffffffffffffffffffffffffffffffff16610f76611e45565b73ffffffffffffffffffffffffffffffffffffffff16141515610fce576040517f08c379a0000000000000000000000000000000000000000000000000000000008152600401610fc590614996565b60405180910390fd5b610fd781612aab565b50565b600081600f84815481101515610fec57fe5b90600052602060002090600802016004019080519060200190611010929190613674565b506001905092915050565b611039838383602060405190810160405280600081525060016126ec565b505050565b600060045482101515611086576040517f08c379a000000000000000000000000000000000000000000000000000000000815260040161107d90614856565b60405180910390fd5b60056000838152602001908152602001600020549050919050565b60006110ab6136f4565b610100604051908101604052808b81526020018a8152602001898152602001888152602001878152602001868152602001858152602001848152509050600f8190806001815401808255809150509060018203906000526020600020906008020160009091929091909150600082015181600001908051906020019061113292919061373a565b50602082015181600101908051906020019061114f92919061373a565b50604082015181600201908051906020019061116c92919061373a565b5060608201518160030190805190602001906111899291906137ba565b5060808201518160040190805190602001906111a692919061373a565b5060a08201518160050190805190602001906111c392919061373a565b5060c08201518160060190805190602001906111e092919061381a565b5060e08201518160070190805190602001906111fd9291906137ba565b5050505061121a6001600f80549050612c4990919063ffffffff16565b91506112268b83612c93565b8a73ffffffffffffffffffffffffffffffffffffffff16827fbe4d5028ecb11dfb1cbc0c1dd7eed270db43c11a50da18fceb823c9af57a2a7860405160405180910390a3819150509998505050505050505050565b6000809054906101000a900473ffffffffffffffffffffffffffffffffffffffff1673ffffffffffffffffffffffffffffffffffffffff163373ffffffffffffffffffffffffffffffffffffffff1614151561130c576040517f08c379a000000000000000000000000000000000000000000000000000000000815260040161130390614976565b60405180910390fd5b806000806101000a81548173ffffffffffffffffffffffffffffffffffffffff021916908373ffffffffffffffffffffffffffffffffffffffff16021790555050565b600081600073ffffffffffffffffffffffffffffffffffffffff166007600083815260200190815260200160002060009054906101000a900473ffffffffffffffffffffffffffffffffffffffff1673ffffffffffffffffffffffffffffffffffffffff16141515156113f7576040517f08c379a00000000000000000000000000000000000000000000000000000000081526004016113ee906148f6565b60405180910390fd5b6007600084815260200190815260200160002060009054906101000a900473ffffffffffffffffffffffffffffffffffffffff16915050919050565b61143b6136f4565b600f8281548110151561144a57fe5b90600052602060002090600802016101006040519081016040529081600082018054600181600116156101000203166002900480601f0160208091040260200160405190810160405280929190818152602001828054600181600116156101000203166002900480156114fe5780601f106114d3576101008083540402835291602001916114fe565b820191906000526020600020905b8154815290600101906020018083116114e157829003601f168201915b50505050508152602001600182018054600181600116156101000203166002900480601f0160208091040260200160405190810160405280929190818152602001828054600181600116156101000203166002900480156115a05780601f10611575576101008083540402835291602001916115a0565b820191906000526020600020905b81548152906001019060200180831161158357829003601f168201915b50505050508152602001600282018054600181600116156101000203166002900480601f0160208091040260200160405190810160405280929190818152602001828054600181600116156101000203166002900480156116425780601f1061161757610100808354040283529160200191611642565b820191906000526020600020905b81548152906001019060200180831161162557829003601f168201915b5050505050815260200160038201805480602002602001604051908101604052809291908181526020016000905b8282101561172c578382906000526020600020018054600181600116156101000203166002900480601f0160208091040260200160405190810160405280929190818152602001828054600181600116156101000203166002900480156117185780601f106116ed57610100808354040283529160200191611718565b820191906000526020600020905b8154815290600101906020018083116116fb57829003601f168201915b505050505081526020019060010190611670565b505050508152602001600482018054600181600116156101000203166002900480601f0160208091040260200160405190810160405280929190818152602001828054600181600116156101000203166002900480156117cd5780601f106117a2576101008083540402835291602001916117cd565b820191906000526020600020905b8154815290600101906020018083116117b057829003601f168201915b50505050508152602001600582018054600181600116156101000203166002900480601f01602080910402602001604051908101604052809291908181526020018280546001816001161561010002031660029004801561186f5780601f106118445761010080835404028352916020019161186f565b820191906000526020600020905b81548152906001019060200180831161185257829003601f168201915b50505050508152602001600682018054806020026020016040519081016040528092919081815260200182805480156118fd57602002820191906000526020600020905b8160009054906101000a900473ffffffffffffffffffffffffffffffffffffffff1673ffffffffffffffffffffffffffffffffffffffff16815260200190600101908083116118b3575b5050505050815260200160078201805480602002602001604051908101604052809291908181526020016000905b828210156119e7578382906000526020600020018054600181600116156101000203166002900480601f0160208091040260200160405190810160405280929190818152602001828054600181600116156101000203166002900480156119d35780601f106119a8576101008083540402835291602001916119d3565b820191906000526020600020905b8154815290600101906020018083116119b657829003601f168201915b50505050508152602001906001019061192b565b50505050815250509050919050565b60008073ffffffffffffffffffffffffffffffffffffffff168273ffffffffffffffffffffffffffffffffffffffff1614151515611a69576040517f08c379a0000000000000000000000000000000000000000000000000000000008152600401611a6090614956565b60405180910390fd5b600a60008373ffffffffffffffffffffffffffffffffffffffff1673ffffffffffffffffffffffffffffffffffffffff168152602001908152602001600020805490509050919050565b611abb612aa3565b73ffffffffffffffffffffffffffffffffffffffff16611ad9611e45565b73ffffffffffffffffffffffffffffffffffffffff16141515611b31576040517f08c379a0000000000000000000000000000000000000000000000000000000008152600401611b2890614996565b60405180910390fd5b611b3b6000612dfb565b565b6000809054906101000a900473ffffffffffffffffffffffffffffffffffffffff1673ffffffffffffffffffffffffffffffffffffffff163373ffffffffffffffffffffffffffffffffffffffff16141515611bce576040517f08c379a0000000000000000000000000000000000000000000000000000000008152600401611bc590614976565b60405180910390fd5b801515600260008473ffffffffffffffffffffffffffffffffffffffff1673ffffffffffffffffffffffffffffffffffffffff16815260200190815260200160002060009054906101000a900460ff16151514151515611c63576040517f08c379a0000000000000000000000000000000000000000000000000000000008152600401611c5a90614876565b60405180910390fd5b80600260008473ffffffffffffffffffffffffffffffffffffffff1673ffffffffffffffffffffffffffffffffffffffff16815260200190815260200160002060006101000a81548160ff0219169083151502179055505050565b600080823b905060008111915050919050565b6000600f83815481101515611ce257fe5b90600052602060002090600802016006013390806001815401808255809150509060018203906000526020600020016000909192909190916101000a81548173ffffffffffffffffffffffffffffffffffffffff021916908373ffffffffffffffffffffffffffffffffffffffff16021790555050600f83815481101515611d6657fe5b9060005260206000209060080201600701829080600181540180825580915050906001820390600052602060002001600090919290919091509080519060200190611db2929190613674565b5050611deb6001600f85815481101515611dc857fe5b906000526020600020906008020160060180549050612c4990919063ffffffff16565b9050823373ffffffffffffffffffffffffffffffffffffffff167f7604ff109eca37fd15890f914b02c75bc89171d42fa73b1a7269f0ef07d4cd3e83604051611e349190614a98565b60405180910390a380905092915050565b6000600360009054906101000a900473ffffffffffffffffffffffffffffffffffffffff16905090565b6060600d8054600181600116156101000203166002900480601f016020809104026020016040519081016040528092919081815260200182805460018160011615610100020316600290048015611f075780601f10611edc57610100808354040283529160200191611f07565b820191906000526020600020905b815481529060010190602001808311611eea57829003601f168201915b5050505050905090565b611f19612aa3565b73ffffffffffffffffffffffffffffffffffffffff16611f37611e45565b73ffffffffffffffffffffffffffffffffffffffff16141515611f8f576040517f08c379a0000000000000000000000000000000000000000000000000000000008152600401611f8690614996565b60405180910390fd5b611f9881612ec1565b50565b801515600860003373ffffffffffffffffffffffffffffffffffffffff1673ffffffffffffffffffffffffffffffffffffffff16815260200190815260200160002060008473ffffffffffffffffffffffffffffffffffffffff1673ffffffffffffffffffffffffffffffffffffffff16815260200190815260200160002060009054906101000a900460ff1615151415151561206d576040517f08c379a000000000000000000000000000000000000000000000000000000000815260040161206490614916565b60405180910390fd5b80600860003373ffffffffffffffffffffffffffffffffffffffff1673ffffffffffffffffffffffffffffffffffffffff16815260200190815260200160002060008473ffffffffffffffffffffffffffffffffffffffff1673ffffffffffffffffffffffffffffffffffffffff16815260200190815260200160002060006101000a81548160ff0219169083151502179055508173ffffffffffffffffffffffffffffffffffffffff163373ffffffffffffffffffffffffffffffffffffffff167f17307eab39ab6107e8899845ad3d59bd9653f200f220920489ca2b5937696c318360405161215e91906147be565b60405180910390a35050565b60026020528060005260406000206000915054906101000a900460ff1681565b60008073ffffffffffffffffffffffffffffffffffffffff168273ffffffffffffffffffffffffffffffffffffffff16141515156121fd576040517f08c379a00000000000000000000000000000000000000000000000000000000081526004016121f490614936565b60405180910390fd5b6000601060008473ffffffffffffffffffffffffffffffffffffffff1673ffffffffffffffffffffffffffffffffffffffff16815260200190815260200160002060009054906101000a900460ff16905080915050919050565b6060600073ffffffffffffffffffffffffffffffffffffffff168273ffffffffffffffffffffffffffffffffffffffff16141515156122cb576040517f08c379a00000000000000000000000000000000000000000000000000000000081526004016122c290614836565b60405180910390fd5b600a60008373ffffffffffffffffffffffffffffffffffffffff1673ffffffffffffffffffffffffffffffffffffffff16815260200190815260200160002080548060200260200160405190810160405280929190818152602001828054801561235457602002820191906000526020600020905b815481526020019060010190808311612340575b50505050509050919050565b6123b285858585858080601f016020809104026020016040519081016040528093929190818152602001838380828437600081840152601f19601f8201169050808301925050505050505060016126ec565b5050505050565b6000600454905090565b60606123ce82613060565b9050919050565b6000600860008473ffffffffffffffffffffffffffffffffffffffff1673ffffffffffffffffffffffffffffffffffffffff16815260200190815260200160002060008373ffffffffffffffffffffffffffffffffffffffff1673ffffffffffffffffffffffffffffffffffffffff16815260200190815260200160002060009054906101000a900460ff16905092915050565b612471612aa3565b73ffffffffffffffffffffffffffffffffffffffff1661248f611e45565b73ffffffffffffffffffffffffffffffffffffffff161415156124e7576040517f08c379a00000000000000000000000000000000000000000000000000000000081526004016124de90614996565b60405180910390fd5b600073ffffffffffffffffffffffffffffffffffffffff168173ffffffffffffffffffffffffffffffffffffffff1614151515612559576040517f08c379a0000000000000000000000000000000000000000000000000000000008152600401612550906148b6565b60405180910390fd5b61256281612dfb565b50565b60008273ffffffffffffffffffffffffffffffffffffffff166007600084815260200190815260200160002060009054906101000a900473ffffffffffffffffffffffffffffffffffffffff1673ffffffffffffffffffffffffffffffffffffffff1614905092915050565b6000600260008473ffffffffffffffffffffffffffffffffffffffff1673ffffffffffffffffffffffffffffffffffffffff16815260200190815260200160002060009054906101000a900460ff16806126e45750600860006007600085815260200190815260200160002060009054906101000a900473ffffffffffffffffffffffffffffffffffffffff1673ffffffffffffffffffffffffffffffffffffffff1673ffffffffffffffffffffffffffffffffffffffff16815260200190815260200160002060008473ffffffffffffffffffffffffffffffffffffffff1673ffffffffffffffffffffffffffffffffffffffff16815260200190815260200160002060009054906101000a900460ff165b905092915050565b82600073ffffffffffffffffffffffffffffffffffffffff166007600083815260200190815260200160002060009054906101000a900473ffffffffffffffffffffffffffffffffffffffff1673ffffffffffffffffffffffffffffffffffffffff1614151515612792576040517f08c379a0000000000000000000000000000000000000000000000000000000008152600401612789906148f6565b60405180910390fd5b61279c8685612565565b15156127dd576040517f08c379a00000000000000000000000000000000000000000000000000000000081526004016127d4906149d6565b60405180910390fd5b600073ffffffffffffffffffffffffffffffffffffffff168573ffffffffffffffffffffffffffffffffffffffff161415151561284f576040517f08c379a000000000000000000000000000000000000000000000000000000000815260040161284690614936565b60405180910390fd5b8573ffffffffffffffffffffffffffffffffffffffff168573ffffffffffffffffffffffffffffffffffffffff16141515156128c0576040517f08c379a00000000000000000000000000000000000000000000000000000000081526004016128b790614a56565b60405180910390fd5b6128ca8685613115565b6009600085815260200190815260200160002060006101000a81549073ffffffffffffffffffffffffffffffffffffffff0219169055600073ffffffffffffffffffffffffffffffffffffffff168673ffffffffffffffffffffffffffffffffffffffff167f8c5be1e5ebec7d5bd14f71427d1e84f3dd0314c0f7b2291e5b200ac8c7c3b9258660405161295e9190614a98565b60405180910390a3612970858561342f565b818015612982575061298185611cbe565b5b15612a36578473ffffffffffffffffffffffffffffffffffffffff1663150b7a02338887876040518563ffffffff167c01000000000000000000000000000000000000000000000000000000000281526004016129e29493929190614750565b602060405180830381600087803b1580156129fc57600080fd5b505af1158015612a10573d6000803e3d6000fd5b505050506040513d601f19601f82011682018060405250612a349190810190613f16565b505b8473ffffffffffffffffffffffffffffffffffffffff168673ffffffffffffffffffffffffffffffffffffffff167fddf252ad1be2c89b69c2b068fc378daa952ba7f163c4a11628f55a4df523b3ef86604051612a939190614a98565b60405180910390a3505050505050565b600033905090565b600073ffffffffffffffffffffffffffffffffffffffff168173ffffffffffffffffffffffffffffffffffffffff1614151515612b1d576040517f08c379a0000000000000000000000000000000000000000000000000000000008152600401612b1490614936565b60405180910390fd5b601060008273ffffffffffffffffffffffffffffffffffffffff1673ffffffffffffffffffffffffffffffffffffffff16815260200190815260200160002060009054906101000a900460ff161515612bab576040517f08c379a0000000000000000000000000000000000000000000000000000000008152600401612ba290614816565b60405180910390fd5b6000601060008373ffffffffffffffffffffffffffffffffffffffff1673ffffffffffffffffffffffffffffffffffffffff16815260200190815260200160002060006101000a81548160ff0219169083151502179055508073ffffffffffffffffffffffffffffffffffffffff167fe94479a9f7e1952cc78f2d6baab678adc1b772d936c6583def489e524cb6669260405160405180910390a250565b6000612c8b83836040805190810160405280601e81526020017f536166654d6174683a207375627472616374696f6e206f766572666c6f7700008152506135c0565b905092915050565b600073ffffffffffffffffffffffffffffffffffffffff166007600083815260200190815260200160002060009054906101000a900473ffffffffffffffffffffffffffffffffffffffff1673ffffffffffffffffffffffffffffffffffffffff16141515612d37576040517f08c379a0000000000000000000000000000000000000000000000000000000008152600401612d2e906149b6565b60405180910390fd5b612d41828261342f565b80600560006004548152602001908152602001600020819055506004546006600083815260200190815260200160002081905550612d8b600160045461361d90919063ffffffff16565b6004819055508173ffffffffffffffffffffffffffffffffffffffff16600073ffffffffffffffffffffffffffffffffffffffff167fddf252ad1be2c89b69c2b068fc378daa952ba7f163c4a11628f55a4df523b3ef83604051612def9190614a98565b60405180910390a35050565b6000600360009054906101000a900473ffffffffffffffffffffffffffffffffffffffff16905081600360006101000a81548173ffffffffffffffffffffffffffffffffffffffff021916908373ffffffffffffffffffffffffffffffffffffffff1602179055508173ffffffffffffffffffffffffffffffffffffffff168173ffffffffffffffffffffffffffffffffffffffff167f8be0079c531659141344cd1fd0a4f28419497f9722a3daafe3b4186f6b6457e060405160405180910390a35050565b600073ffffffffffffffffffffffffffffffffffffffff168173ffffffffffffffffffffffffffffffffffffffff1614151515612f33576040517f08c379a0000000000000000000000000000000000000000000000000000000008152600401612f2a90614936565b60405180910390fd5b601060008273ffffffffffffffffffffffffffffffffffffffff1673ffffffffffffffffffffffffffffffffffffffff16815260200190815260200160002060009054906101000a900460ff16151515612fc2576040517f08c379a0000000000000000000000000000000000000000000000000000000008152600401612fb990614a16565b60405180910390fd5b6001601060008373ffffffffffffffffffffffffffffffffffffffff1673ffffffffffffffffffffffffffffffffffffffff16815260200190815260200160002060006101000a81548160ff0219169083151502179055508073ffffffffffffffffffffffffffffffffffffffff167f6ae172837ea30b801fbfcdd4108aa1d5bf8ff775444fd70256b44e6bf3dfc3f660405160405180910390a250565b6060600e60008381526020019081526020016000208054600181600116156101000203166002900480601f0160208091040260200160405190810160405280929190818152602001828054600181600116156101000203166002900480156131095780601f106130de57610100808354040283529160200191613109565b820191906000526020600020905b8154815290600101906020018083116130ec57829003601f168201915b50505050509050919050565b600073ffffffffffffffffffffffffffffffffffffffff168273ffffffffffffffffffffffffffffffffffffffff1614151515613187576040517f08c379a000000000000000000000000000000000000000000000000000000000815260040161317e90614936565b60405180910390fd5b6000600b600083815260200190815260200160002054905060006131f76001600a60008773ffffffffffffffffffffffffffffffffffffffff1673ffffffffffffffffffffffffffffffffffffffff16815260200190815260200160002080549050612c4990919063ffffffff16565b90506000600a60008673ffffffffffffffffffffffffffffffffffffffff1673ffffffffffffffffffffffffffffffffffffffff1681526020019081526020016000208281548110151561324757fe5b9060005260206000200154905060006007600086815260200190815260200160002060006101000a81548173ffffffffffffffffffffffffffffffffffffffff021916908373ffffffffffffffffffffffffffffffffffffffff16021790555080600a60008773ffffffffffffffffffffffffffffffffffffffff1673ffffffffffffffffffffffffffffffffffffffff168152602001908152602001600020848154811015156132f457fe5b906000526020600020018190555082600b600083815260200190815260200160002081905550600a60008673ffffffffffffffffffffffffffffffffffffffff1673ffffffffffffffffffffffffffffffffffffffff168152602001908152602001600020805480151561336457fe5b600190038181906000526020600020016000905590556000600a60008773ffffffffffffffffffffffffffffffffffffffff1673ffffffffffffffffffffffffffffffffffffffff16815260200190815260200160002080549050141561341157600a60008673ffffffffffffffffffffffffffffffffffffffff1673ffffffffffffffffffffffffffffffffffffffff168152602001908152602001600020600061341091906138a4565b5b600b6000858152602001908152602001600020600090555050505050565b600073ffffffffffffffffffffffffffffffffffffffff168273ffffffffffffffffffffffffffffffffffffffff16141515156134a1576040517f08c379a000000000000000000000000000000000000000000000000000000000815260040161349890614936565b60405180910390fd5b816007600083815260200190815260200160002060006101000a81548173ffffffffffffffffffffffffffffffffffffffff021916908373ffffffffffffffffffffffffffffffffffffffff1602179055506000600a60008473ffffffffffffffffffffffffffffffffffffffff1673ffffffffffffffffffffffffffffffffffffffff168152602001908152602001600020805490509050600a60008473ffffffffffffffffffffffffffffffffffffffff1673ffffffffffffffffffffffffffffffffffffffff16815260200190815260200160002082908060018154018082558091505090600182039060005260206000200160009091929091909150555080600b600084815260200190815260200160002081905550505050565b6000838311158290151561360a576040517f08c379a000000000000000000000000000000000000000000000000000000000815260040161360191906147f4565b60405180910390fd5b5060008385039050809150509392505050565b600080828401905083811015151561366a576040517f08c379a0000000000000000000000000000000000000000000000000000000008152600401613661906148d6565b60405180910390fd5b8091505092915050565b828054600181600116156101000203166002900490600052602060002090601f016020900481019282601f106136b557805160ff19168380011785556136e3565b828001600101855582156136e3579182015b828111156136e25782518255916020019190600101906136c7565b5b5090506136f091906138c5565b5090565b6101006040519081016040528060608152602001606081526020016060815260200160608152602001606081526020016060815260200160608152602001606081525090565b828054600181600116156101000203166002900490600052602060002090601f016020900481019282601f1061377b57805160ff19168380011785556137a9565b828001600101855582156137a9579182015b828111156137a857825182559160200191906001019061378d565b5b5090506137b691906138c5565b5090565b828054828255906000526020600020908101928215613809579160200282015b828111156138085782518290805190602001906137f892919061373a565b50916020019190600101906137da565b5b50905061381691906138ea565b5090565b828054828255906000526020600020908101928215613893579160200282015b828111156138925782518260006101000a81548173ffffffffffffffffffffffffffffffffffffffff021916908373ffffffffffffffffffffffffffffffffffffffff1602179055509160200191906001019061383a565b5b5090506138a09190613916565b5090565b50805460008255906000526020600020908101906138c291906138c5565b50565b6138e791905b808211156138e35760008160009055506001016138cb565b5090565b90565b61391391905b8082111561390f57600081816139069190613959565b506001016138f0565b5090565b90565b61395691905b8082111561395257600081816101000a81549073ffffffffffffffffffffffffffffffffffffffff02191690555060010161391c565b5090565b90565b50805460018160011615610100020316600290046000825580601f1061397f575061399e565b601f01602090049060005260206000209081019061399d91906138c5565b5b50565b60006139ad8235614c60565b905092915050565b600082601f83011215156139c857600080fd5b81356139db6139d682614ae0565b614ab3565b91508181835260208401935060208101905083856020840282011115613a0057600080fd5b60005b83811015613a305781613a1688826139a1565b845260208401935060208301925050600181019050613a03565b5050505092915050565b600082601f8301121515613a4d57600080fd5b8135613a60613a5b82614b08565b614ab3565b9150818183526020840193506020810190508360005b83811015613aa65781358601613a8c8882613b24565b845260208401935060208301925050600181019050613a76565b5050505092915050565b6000613abc8235614c72565b905092915050565b6000613ad08251614c7e565b905092915050565b60008083601f8401121515613aec57600080fd5b8235905067ffffffffffffffff811115613b0557600080fd5b602083019150836001820283011115613b1d57600080fd5b9250929050565b600082601f8301121515613b3757600080fd5b8135613b4a613b4582614b30565b614ab3565b91508082526020830160208301858383011115613b6657600080fd5b613b71838284614d0e565b50505092915050565b600082601f8301121515613b8d57600080fd5b8135613ba0613b9b82614b5c565b614ab3565b91508082526020830160208301858383011115613bbc57600080fd5b613bc7838284614d0e565b50505092915050565b6000613bdc8235614caa565b905092915050565b600060208284031215613bf657600080fd5b6000613c04848285016139a1565b91505092915050565b60008060408385031215613c2057600080fd5b6000613c2e858286016139a1565b9250506020613c3f858286016139a1565b9150509250929050565b600080600060608486031215613c5e57600080fd5b6000613c6c868287016139a1565b9350506020613c7d868287016139a1565b9250506040613c8e86828701613bd0565b9150509250925092565b600080600080600060808688031215613cb057600080fd5b6000613cbe888289016139a1565b9550506020613ccf888289016139a1565b9450506040613ce088828901613bd0565b935050606086013567ffffffffffffffff811115613cfd57600080fd5b613d0988828901613ad8565b92509250509295509295909350565b60008060408385031215613d2b57600080fd5b6000613d39858286016139a1565b9250506020613d4a85828601613ab0565b9150509250929050565b60008060008060008060008060006101208a8c031215613d7357600080fd5b6000613d818c828d016139a1565b99505060208a013567ffffffffffffffff811115613d9e57600080fd5b613daa8c828d01613b7a565b98505060408a013567ffffffffffffffff811115613dc757600080fd5b613dd38c828d01613b7a565b97505060608a013567ffffffffffffffff811115613df057600080fd5b613dfc8c828d01613b7a565b96505060808a013567ffffffffffffffff811115613e1957600080fd5b613e258c828d01613a3a565b95505060a08a013567ffffffffffffffff811115613e4257600080fd5b613e4e8c828d01613b7a565b94505060c08a013567ffffffffffffffff811115613e6b57600080fd5b613e778c828d01613b7a565b93505060e08a013567ffffffffffffffff811115613e9457600080fd5b613ea08c828d016139b5565b9250506101008a013567ffffffffffffffff811115613ebe57600080fd5b613eca8c828d01613a3a565b9150509295985092959850929598565b60008060408385031215613eed57600080fd5b6000613efb858286016139a1565b9250506020613f0c85828601613bd0565b9150509250929050565b600060208284031215613f2857600080fd5b6000613f3684828501613ac4565b91505092915050565b600060208284031215613f5157600080fd5b6000613f5f84828501613bd0565b91505092915050565b60008060408385031215613f7b57600080fd5b6000613f8985828601613bd0565b925050602083013567ffffffffffffffff811115613fa657600080fd5b613fb285828601613b7a565b9150509250929050565b613fc581614cb4565b82525050565b613fd481614c18565b82525050565b6000613fe582614baf565b808452602084019350613ff783614b88565b60005b828110156140295761400d868351613fcb565b61401682614bf1565b9150602086019550600181019050613ffa565b50849250505092915050565b600061404082614bba565b8084526020840193508360208202850161405985614b95565b60005b84811015614092578383038852614074838351614188565b925061407f82614bfe565b915060208801975060018101905061405c565b508196508694505050505092915050565b60006140ae82614bc5565b8084526020840193506140c083614ba2565b60005b828110156140f2576140d6868351614726565b6140df82614c0b565b91506020860195506001810190506140c3565b50849250505092915050565b61410781614c2a565b82525050565b600061411882614bd0565b80845261412c816020860160208601614d1d565b61413581614d50565b602085010191505092915050565b61414c81614cc6565b82525050565b600061415d82614be6565b808452614171816020860160208601614d1d565b61417a81614d50565b602085010191505092915050565b600061419382614bdb565b8084526141a7816020860160208601614d1d565b6141b081614d50565b602085010191505092915050565b6000601582527f6e6f7420746865206d696e746572206f66204e465400000000000000000000006020830152604082019050919050565b6000601582527f696e76616c6964206f776e6572206164647265737300000000000000000000006020830152604082019050919050565b6000601382527f696e76616c696420546f6b656e20696e646578000000000000000000000000006020830152604082019050919050565b6000600e82527f5265706561742073657474696e670000000000000000000000000000000000006020830152604082019050919050565b6000602182527f616c726561647920617574686f72697a65642075736572206f66204e4654204960208301527f44000000000000000000000000000000000000000000000000000000000000006040830152606082019050919050565b6000602682527f4f776e61626c653a206e6577206f776e657220697320746865207a65726f206160208301527f64647265737300000000000000000000000000000000000000000000000000006040830152606082019050919050565b6000601b82527f536166654d6174683a206164646974696f6e206f766572666c6f7700000000006020830152604082019050919050565b6000601782527f4e465420494420686173206e6f206f776e6572736869700000000000000000006020830152604082019050919050565b6000601982527f746865206167656e7420686173206265656e20736574207570000000000000006020830152604082019050919050565b6000600f82527f696e76616c6964206164647265737300000000000000000000000000000000006020830152604082019050919050565b6000601482527f696e76616c6964207573657220616464726573730000000000000000000000006020830152604082019050919050565b6000601782527f6e6f7420612077686974656c697374206d616e616765720000000000000000006020830152604082019050919050565b6000602082527f4f776e61626c653a2063616c6c6572206973206e6f7420746865206f776e65726020830152604082019050919050565b6000601c82527f4e465420494420616c726561647920686173206f776e657273686970000000006020830152604082019050919050565b6000601082527f6e6f74204e4654204944206f776e6572000000000000000000000000000000006020830152604082019050919050565b6000601982527f6e6f74204e4654204944206f776e6572206f72206167656e74000000000000006020830152604082019050919050565b6000601582527f616c7265616479206d696e746572206f66204e465400000000000000000000006020830152604082019050919050565b6000601782527f616c7265616479206f776e6572206f66204e46542049440000000000000000006020830152604082019050919050565b6000602682527f746f2061646472657373206973207468652073616d652061732066726f6d206160208301527f64647265737300000000000000000000000000000000000000000000000000006040830152606082019050919050565b60006101008301600083015184820360008601526146638282614188565b9150506020830151848203602086015261467d8282614188565b915050604083015184820360408601526146978282614188565b915050606083015184820360608601526146b18282614035565b915050608083015184820360808601526146cb8282614188565b91505060a083015184820360a08601526146e58282614188565b91505060c083015184820360c08601526146ff8282613fda565b91505060e083015184820360e08601526147198282614035565b9150508091505092915050565b61472f81614c56565b82525050565b600060208201905061474a6000830184613fcb565b92915050565b60006080820190506147656000830187613fbc565b6147726020830186613fcb565b61477f6040830185614726565b8181036060830152614791818461410d565b905095945050505050565b600060208201905081810360008301526147b681846140a3565b905092915050565b60006020820190506147d360008301846140fe565b92915050565b60006020820190506147ee6000830184614143565b92915050565b6000602082019050818103600083015261480e8184614152565b905092915050565b6000602082019050818103600083015261482f816141be565b9050919050565b6000602082019050818103600083015261484f816141f5565b9050919050565b6000602082019050818103600083015261486f8161422c565b9050919050565b6000602082019050818103600083015261488f81614263565b9050919050565b600060208201905081810360008301526148af8161429a565b9050919050565b600060208201905081810360008301526148cf816142f7565b9050919050565b600060208201905081810360008301526148ef81614354565b9050919050565b6000602082019050818103600083015261490f8161438b565b9050919050565b6000602082019050818103600083015261492f816143c2565b9050919050565b6000602082019050818103600083015261494f816143f9565b9050919050565b6000602082019050818103600083015261496f81614430565b9050919050565b6000602082019050818103600083015261498f81614467565b9050919050565b600060208201905081810360008301526149af8161449e565b9050919050565b600060208201905081810360008301526149cf816144d5565b9050919050565b600060208201905081810360008301526149ef8161450c565b9050919050565b60006020820190508181036000830152614a0f81614543565b9050919050565b60006020820190508181036000830152614a2f8161457a565b9050919050565b60006020820190508181036000830152614a4f816145b1565b9050919050565b60006020820190508181036000830152614a6f816145e8565b9050919050565b60006020820190508181036000830152614a908184614645565b905092915050565b6000602082019050614aad6000830184614726565b92915050565b6000604051905081810181811067ffffffffffffffff82111715614ad657600080fd5b8060405250919050565b600067ffffffffffffffff821115614af757600080fd5b602082029050602081019050919050565b600067ffffffffffffffff821115614b1f57600080fd5b602082029050602081019050919050565b600067ffffffffffffffff821115614b4757600080fd5b601f19601f8301169050602081019050919050565b600067ffffffffffffffff821115614b7357600080fd5b601f19601f8301169050602081019050919050565b6000602082019050919050565b6000602082019050919050565b6000602082019050919050565b600081519050919050565b600081519050919050565b600081519050919050565b600081519050919050565b600081519050919050565b600081519050919050565b6000602082019050919050565b6000602082019050919050565b6000602082019050919050565b6000614c2382614c36565b9050919050565b60008115159050919050565b600073ffffffffffffffffffffffffffffffffffffffff82169050919050565b6000819050919050565b6000614c6b82614c36565b9050919050565b60008115159050919050565b60007fffffffff0000000000000000000000000000000000000000000000000000000082169050919050565b6000819050919050565b6000614cbf82614cea565b9050919050565b6000614cd182614cd8565b9050919050565b6000614ce382614c36565b9050919050565b6000614cf582614cfc565b9050919050565b6000614d0782614c36565b9050919050565b82818337600083830152505050565b60005b83811015614d3b578082015181840152602081019050614d20565b83811115614d4a576000848401525b50505050565b6000601f19601f830116905091905056fea265627a7a723058207c695a42a3851ba7b37f4d066dcc9ce7ccb5a5e699282d386431a7056a1187916c6578706572696d656e74616cf50037",
  "linkReferences": {},
  "deployedLinkReferences": {}
}